:100000005CC0000082C0000080C000007EC0000014
:100010007CC000007AC0000078C0000076C00000FC
:1000200074C0000072C0000070C000006EC000000C
:100030006CC000000C94FB2268C0000066C0000089
:100040000C94952662C000000C9431290C9463290D
:100050005CC000005AC0000058C0000056C000003C
:1000600054C0000052C0000000000008000201005F
:100070000003040700000000000000000102040863
:100080001020408001020408102001020408102002
:10009000040404040404040402020202020203032E
:1000A0000303030300000000250028002B000000CC
:1000B0000000240027002A00882911241FBECFEF4A
:1000C000D8E0DEBFCDBF11E0A0E0B1E0E4E9F4E5A7
:1000D00002C005900D92A03FB107D9F725E0A0EF2F
:1000E000B1E001C01D92AA37B207E1F710E0CDE5FB
:1000F000D0E004C02197FE010E94192ACC35D10717
:10010000C9F70E94F9230C94482A7ACF611102C0E2
:100110000C949E276130E1F362E0FACF662319F078
:1001200061E00C94DA2760E0FCCF90E080E0089575
:100130000F931F93009709F487C06115710509F4A7
:1001400083C0009133011091340120913501309129
:1001500036010E3F1F4F2F4F3F4F09F066C04FEF44
:100160005FEFBA014093330150933401609335013E
:100170007093360140913301509134016091350103
:1001800070913601DC011296ED91FC918081918194
:10019000A281B3818093640290936502A09366026A
:1001A000B093670284819581A681B78180936002B4
:1001B00090936102A0936202B0936302808591855F
:1001C000A285B38580935C0290935D02A0935E024A
:1001D000B0935F0284859585A685B7858093580284
:1001E00090935902A0935A02B0935B02109254026A
:1001F000109255021092560210925702FFD583E2D8
:1002000097E09093F1018093F0019093F301809334
:10021000F201E3D4009731F421E030E03093690239
:10022000209368021F910F9108950091330110915E
:1002300034012091350130913601DB010D931D937E
:100240002D933C93139796CF8FEF9FEFEBCF8F9229
:100250009F92AF92BF92CF92DF92EF92FF921F9345
:10026000CF93DF934B015C0110916B0282E090E031
:10027000909369028093680281149104A104B104EF
:1002800041F480916B02811104C080916A02C1E047
:100290008111C0E0C12CD12C760180916B028111BB
:1002A00006C080916A02811102C0CC23D9F083E09C
:1002B00090E09093690280936802CC2379F1CCE9B5
:1002C000DFEF111102C00E94870ACE01DF91CF91AA
:1002D0001F91FF90EF90DF90CF90BF90AF909F90D5
:1002E0008F9008956AE070E080E090E00E9404271B
:1002F00080E1C80E87E2D81EE11CF11C8FEF881642
:100300009806A806B80631F0C1E08C149D04AE042E
:10031000BF0408F0C0E080E094D4BFCFD0E0C0E0DC
:10032000D0CFCF92DF92EF92FF920F931F93CF9394
:10033000DF938F3F910511F008F050C020916802C3
:10034000309169022330310539F0209168023091F3
:1003500069022130310531F424E030E03093690244
:10036000209368026A017B01EC0182309105A0F0C4
:1003700011E0AE01C701B6012FD4AB01BC01CE0123
:100380001123F9F0DF91CF911F910F91FF90EF9022
:10039000DF90CF900C94B00C8C01000F111F005116
:1003A0001E4FD8018D919C91892B11F30E94BA0C9C
:1003B0000297F1F6D801ED91FC91CE010995182F25
:1003C000D8CF0E94D20C90E080E0DF91CF911F91B6
:1003D0000F91FF90EF90DF90CF9008958FEF9FEFF8
:1003E000F4CF80E02EC4CF93DF9386E090E090932B
:1003F0006902809368027ED4EC01E0EFF1E084E0D2
:10040000DF011D928A95E9F70E941F0A1092690286
:1004100010926802CE01DF91CF91089580916A0217
:1004200008958091530208956093330170933401CD
:10043000809335019093360190E080E00895CF924B
:10044000DF92EF92FF926B017C019F7720E030E01A
:1004500040E859E50E94F92487FF2BC020E030E0F6
:1004600040E05FE3C701B6010E942E2687FD0EC063
:1004700020E030E040E05FE3C701B6010E94822443
:10048000FF90EF90DF90CF900C94662520E030E055
:1004900040E05FEBC701B6010E942E26181684F4D7
:1004A00020E030E0A901C701B6010E9432266B01AD
:1004B0007C01C701B601FF90EF90DF90CF900895C7
:1004C00020E030E040E05FE3C701B6010E948124F4
:1004D000FF90EF90DF90CF900C94E6244F925F92C4
:1004E0006F927F928F929F92AF92BF92CF92DF9244
:1004F000EF92FF9280913001813009F088C18091A4
:10050000080190910901A0910A01B0910B0180931B
:10051000600590936105A0936205B0936305C09058
:100520005805D0905905E0905A05F0905B05C70139
:10053000B6010E942B252B013C012091180130911E
:10054000190140911A0150911B010E94F92487FF63
:1005500067C1F7FC65C18090100190901101A090D7
:100560001201B090130120E030E040E85FE36091B9
:1005700014017091150180911601909117010E944C
:1005800081249B01AC01C301B2010E942E2687FD8C
:100590004BC1109258051092590510925A051092AD
:1005A0005B0580913101813009F04CC18092640576
:1005B00090926505A0926605B0926705C0905C05B3
:1005C000D0905D05E0905E05F0905F05C701B60133
:1005D0000E942B254B015C012091280130912901BB
:1005E00040912A0150912B010E94F92487FF3BC1C1
:1005F000F7FC39C18091200190912101A091220145
:10060000B09123018093680590936905A0936A05D2
:10061000B0936B0520E030E040E85FE36091240197
:100620007091250180912601909127010E948124DB
:100630009B01AC01C501B4010E942E2687FD17C1A4
:1006400010925C0510925D0510925E0510925F0598
:1006500080913201813081F08091040190910501F7
:10066000A0910601B09107018093680590936905F8
:10067000A0936A05B0936B05809160059091610528
:10068000A0916205B091630580936C0590936D0510
:10069000A0936E05B0936F058091640590916505F8
:1006A000A0916605B09167058093700590937105E0
:1006B000A0937205B0937305609168057091690508
:1006C00080916A0590916B05609374057093750530
:1006D0008093760590937705B2DE6B017C0120E074
:1006E00030E040E853E40E94F9246FEF87FF0EC02A
:1006F00020E030E0A901C701B6010E942E2660E08B
:1007000087FD04C0C701B6010E94FD248BE006DD11
:10071000609164057091650580916605909167050B
:100720008EDE6B017C0120E030E040E853E40E9463
:10073000F9246FEF87FF0EC020E030E0A901C70168
:10074000B6010E942E2660E087FD04C0C701B601F5
:100750000E94FD248AE0E2DC6091600570916105F1
:1007600080916205909163056ADE6B017C0120E057
:1007700030E040E853E40E94F9246FEF87FF0EC099
:1007800020E030E0A901C701B6010E942E2660E0FA
:1007900087FD04C0C701B6010E94FD2489E0BEDCCC
:1007A00060912A0270912B0280912C0290912D026F
:1007B0006F5F7F4F8F4F9F4F60932A0270932B0282
:1007C00080932C0290932D020E9429259B01AC015D
:1007D00060912E0270912F0280913002909131022F
:1007E0000E9432266093260270932702809328028B
:1007F00090932902FF90EF90DF90CF90BF90AF9041
:100800009F908F907F906F905F904F900895809110
:100810000C0190910D01A0910E01B0910F0177CEC6
:10082000812C912C54019FCE8FEFC81AD80AE80A68
:10083000F80AC0925805D0925905E0925A05F092F4
:100840005B05AFCE8091000190910101A091020162
:10085000B09103018093640590936505A0936605AC
:10086000B0936705ABCE80E090E0DC01CBCE8FEF9C
:10087000C81AD80AE80AF80AC0925C05D0925D0549
:10088000E0925E05F0925F05E3CECF92DF92EF92A9
:10089000FF921F93CF93DF93E0E1F2E080E090E0DE
:1008A000A0E8BFEB82A393A3A4A3B5A38AE097ED2E
:1008B000A3EABCE3868F978FA0A3B1A38BEF9CEB39
:1008C000A1ECB5E784839583A683B78385E899E295
:1008D000ACECBDE780879187A287B38786E996EA6B
:1008E000AAE2BCE584879587A687B78782E790E967
:1008F000ACE4B5E8808B918BA28BB38BA4E0B2E023
:10090000B383A283E4EFF1E01196FC93EE938CE5C0
:1009100091E09183808393838283958384839783FB
:100920008683918780879387828795878487978737
:10093000868784E292E015969C938E93149784E1C7
:1009400092E013969C938E93129786E292E017960C
:100950009C938E931697CEE3D5E01882C12CD12CB0
:100960007601C394C982DA82EB82FC8261E08BE07B
:10097000CDDB11E01D831886C986DA86EB86FC86FE
:1009800061E08AE0C3DB1D87188AC98ADA8AEB8AAC
:10099000FC8A61E089E0BADB1D8BDF91CF911F916A
:1009A000FF90EF90DF90CF90089580913E058111E8
:1009B00003C081E080933E0580914605811103C00C
:1009C00081E08093460580914E05811103C081E04E
:1009D00080934E0508954F925F926F927F928F920F
:1009E0009F92AF92BF92CF92DF92EF92FF920F93BE
:1009F0001F93F89440904302509044026090450247
:100A000070904602C0903702D0903802E0903902D0
:100A1000F0903A02452B09F0A4C09B01AC012419C7
:100A200035094609570929013A0100913F02109101
:100A30004002209141023091420248015901840C48
:100A4000951CA61CB71C80169106A206B306A0F43E
:100A500000913B0210913C0220913D0230913E02F8
:100A60000F5F1F4F2F4F3F4F00933B0210933C02ED
:100A700020933D0230933E0280923F0290924002CA
:100A8000A0924102B092420200913B0210913C02BE
:100A900020913D0230913E0280924702909248029E
:100AA000A0924902B0924A0200934B0210934C026A
:100AB00020934D0230934E026093430270934402A0
:100AC0008093450290934602A0E2BEE4A301920106
:100AD0000E941F2A6C0D7D1D8E1D9F1D6093370285
:100AE000709338028093390290933A020091330157
:100AF0001091340120913501309136010F3F1F4F85
:100B00002F4F3F4FF1F000913301109134012091AC
:100B10003501309136010E3F1F4F2F4F3F4F89F067
:100B2000C0903301D0903401E0903501F09036014F
:100B300021E08C149D04AE04BF0408F420E020934F
:100B4000530278941F910F91FF90EF90DF90CF9018
:100B5000BF90AF909F908F907F906F905F904F90DD
:100B600008954B015C0184189508A608B708A301F5
:100B70009201261B370B480B590B6415750586052A
:100B80009705D0F082169306A406B50640F420E03F
:100B900030E0A90181149104A104B10491F4A0E210
:100BA000BEE40E941F2AA7019601261B370B480BA3
:100BB000590BCA01B901C5CF82169306A406B50622
:100BC00070F7A0E2BEE4A50194010E941F2A6C0DFB
:100BD0007D1D8E1D9F1DB5CFFECECF93DF9300D020
:100BE00000D0CDB7DEB71C821B821A821982109208
:100BF0004F02109250021092510210925202BE0106
:100C00006F5F7F4FCE0103960E94DF2269817A8158
:100C10008B819C810E94D11B009761F4BE016F5FA4
:100C20007F4FCE0103960E94EB2269817A818B81EE
:100C30009C812CD50F900F900F900F90DF91CF914A
:100C40000895FF920F931F93CF93DF93082F60E0D7
:100C500070E0CB010E940427FF24F3940E94BC1A89
:100C6000EC01892B89F010E0CE3F8FEFD80769F0B7
:100C7000002361F160E070E0CB010E94042781E075
:100C800090E0892B59F322C011E023D5EC01892B88
:100C900021F0CE3F8FEFD80759F711111EC011E098
:100CA000229609F410E00E946D1AEC01892B21F0C4
:100CB000CE3F8FEFD807E1F6111111C011E0CE3F02
:100CC0008FEFD80709F410E001110BC0CE01DF91BE
:100CD000CF911F910F91FF90089511E0E4CF11E0A3
:100CE000F3CF60E070E0CB010E9404271F25812F25
:100CF00090E0C7CFCF93DF9380915302882321F0F8
:100D000060E070E0CB014CD635D6D0E0C0E0892B56
:100D100071F06AE070E080E090E00E94042781E0DA
:100D200090DF28D62196C03D27E0D20781F727D64D
:100D30000E94251C10926B0210926A0210926402AB
:100D40001092650210926602109267021092600281
:100D500010926102109262021092630210925C0281
:100D600010925D0210925E0210925F021092580281
:100D70001092590210925A0210925B021092540281
:100D80001092550210925602109257024EEF5FEFEA
:100D90006FEF7FEF4093330150933401609335013F
:100DA0007093360110925302E7E4F2E028E0DF018D
:100DB0001D922A95E9F71092430210924402109274
:100DC00045021092460210923F0210924002109289
:100DD00041021092420210923B0210923C02109289
:100DE0003D0210923E021092370210923802109289
:100DF000390210923A02DF91CF9108951092770252
:100E0000109278021092790210927A021092760271
:100E100080917F029091800290937502809374027A
:100E2000109273021092720210926E0210926F0270
:100E3000109270021092710210927C0210927B024A
:100E400090E080E00895CF92DF92EF92FF920F93AF
:100E50001F93CF938C01892B09F055C020917F02FD
:100E600030918002809174029091750240917F02CE
:100E700050918002509375024093740228173907ED
:100E800081F0109273021092720210926E02109210
:100E90006F02109270021092710210927C021092F6
:100EA0007B0280917F0290918002019761F5809191
:100EB0007B0290917C02892B21F480913701811172
:100EC00012C080917B0290917C020197E1F48091A5
:100ED0006E0290916F02A0917002B0917102019721
:100EE000A105B10581F410926E0210926F0210926A
:100EF0007002109271021092370182E090E090939C
:100F00007C0280937B0280917F0290918002019706
:100F100009F01CC18091950290919602801791076B
:100F200009F014C18091910290919202A0919302D4
:100F3000B0919402009709F409C120919002211107
:100F40000DC0409191025091920260919302709174
:100F50009402452B462B472B09F4F8C020917B02C5
:100F600030917C022230310509F0F0C020917202EC
:100F70002111ECC0FC01C080D180E280F38080911F
:100F80007602882309F4D3C0809182029091830273
:100F9000892B09F4FDC0209182023091830281E007
:100FA0002230310509F080E02091820230918302E5
:100FB000C1E02130310549F0209182023091830255
:100FC000C1E02230310509F0C0E0882309F456C0A1
:100FD00020918C0230918D0240918E0250918F02AF
:100FE000C701B6010E942E2687FD14C020918C02F5
:100FF00030918D0240918E0250918F026091770264
:10100000709178028091790290917A020E94F9247D
:1010100087FD22C020918C0230918D0240918E027A
:1010200050918F02C701B6010E942E26181634F582
:1010300020918C0230918D0240918E0250918F024E
:1010400060917702709178028091790290917A0292
:101050000E94F924811112C080918402909185022E
:10106000A0918602B0918702892B8A2B8B2B19F4D1
:1010700081E08093730281E080937202CC2309F4B3
:1010800056C020918C0230918D0240918E02509179
:101090008F02C701B6010E94F92487FF14C0209176
:1010A0008C0230918D0240918E0250918F0260919E
:1010B0007702709178028091790290917A020E9471
:1010C0002E2687FF22C020918C0230918D02409104
:1010D0008E0250918F02C701B6010E94F92481113E
:1010E00026C020918C0230918D0240918E02509149
:1010F0008F026091770270917802809179029091CD
:101100007A020E942E26181694F4809184029091FF
:101110008502A0918602B0918702892B8A2B8B2BA6
:1011200019F481E08093730281E08093720281E080
:1011300090917202911180E080937602C0927702C2
:10114000D0927802E0927902F0927A02012B09F0B3
:1011500067C180917B0290917C02892BD9F4109217
:1011600081021092720280913701882379F082E027
:1011700090E090937C0280937B0210923701209143
:101180007F023091800281E0232BE9F080E01BC0D8
:1011900081E00ACF1092370180918102882349F0C3
:1011A0001092730210927C0210927B0210928102C4
:1011B000EDCF80917F0290918002892BE1F08091A8
:1011C00072021092720220917B0230917C022230D6
:1011D000310509F45EC088F42115310509F448C0D1
:1011E0002130310509F4F3C010927302109272029B
:1011F0001092810238C081E0E6CF2330310509F436
:10120000B1C02430310581F740916E0250916F02D8
:10121000609170027091710241155105610571056F
:1012200061F0415051096109710940936E02509378
:101230006F02609370027093710240916E02509140
:101240006F026091700270917102452B462B472B03
:10125000D9F420917D0230917E022130310509F0D0
:1012600046C01092730210927C0210927B020CC056
:1012700080913701882341F082E090E090937C02D6
:1012800080937B021092370110926C02809173025E
:10129000CEC08823C9F38091840290918502A091E9
:1012A0008602B0918702181619061A061B060CF062
:1012B0007DC080917F0290918002019709F076C0F5
:1012C0008091840290918502A0918602B09187025C
:1012D00080936E0290936F02A0937002B09371029C
:1012E00083E090E090937C0280937B02CDCF40918D
:1012F00088025091890260918A0270918B02452B7D
:10130000462B472BA9F0109273028091880290918E
:101310008902A0918A02B0918B0280936E02909311
:101320006F02A0937002B093710281E090E0DACF77
:10133000882399F08091380190913901A0913A0168
:10134000B0913B0180936E0290936F02A093700264
:10135000B093710284E090E0C5CF1092730282E0F6
:1013600090E0C0CF80916E0290916F02A0917002C8
:10137000B09171020097A105B10559F00197A1093B
:10138000B10980936E0290936F02A0937002B093A4
:10139000710280916E0290916F02A0917002B091E3
:1013A0007102892B8A2B8B2B09F06ECF809138012B
:1013B00090913901A0913A01B0913B01892B8A2B80
:1013C0008B2B09F44ECF81E080937302B3CF409111
:1013D0006E0250916F02609170027091710241151E
:1013E00051056105710561F04150510961097109AB
:1013F00040936E0250936F0260937002709371027B
:1014000040916E0250916F02609170027091710272
:10141000452B462B472B09F037CF8111C7CF9FCFE4
:1014200080916C02882309F431CF80916D02CF91B5
:101430001F910F91FF90EF90DF90CF900895109241
:101440007702109278021092790210927A0210922A
:10145000760210927C0210927B021092750210921A
:1014600074021092960210929502109273021092DA
:10147000720210926E0210926F021092700210921D
:10148000710210926D0210926C02109291021092F1
:101490009202109293021092940210929002109273
:1014A0008C0210928D0210928E0210928F0288EEA2
:1014B00093E0A0E0B0E08093380190933901A093CD
:1014C0003A01B0933B011092880210928902109267
:1014D0008A0210928B02109284021092850210925E
:1014E000860210928702109283021092820281E09B
:1014F00080933701109281021092800210927F0235
:1015000010927E0210927D0290E080E0089580911A
:101510007F0290918002892B19F5809137018823F1
:1015200051F080918102811106C081E080936D02AB
:1015300080936C020895209181023091370181E0FF
:1015400090E0332311F090E080E030E08223932399
:10155000892B21F010926D0281E0EACF10926C028B
:10156000089582E090E0FA01918380838FEF9FEFEE
:101570000895CF93DF93EA01009711F00E94451D73
:101580001982188290E080E0DF91CF910895DB010D
:10159000009719F48FEF8C9308952EEF2C930F96EC
:1015A0008F30910508F033C0FC01E752F54F0C94E1
:1015B000192A050B030B010BFF0AFD0AF90AFB0AA6
:1015C000F70AF50AF30AF00AEC0AE80AEE0A070B32
:1015D00080E311968C93089589E2FBCF82E2F9CFE4
:1015E00011961C92089583E2F4CF81E2F2CF81E15B
:1015F000F0CF87E2EECF8AE2ECCF80E1EACF84E25F
:10160000E8CF88E2E6CF86E2E4CF81E3E2CF80E272
:10161000E0CF8091A3029091A40208959093A40238
:101620008093A30208958091A20208959091A2024E
:10163000892B8093A2020895982F90958091A20201
:1016400089238093A20208958091A1020895809138
:101650009F029091A00208956115710559F0FB0158
:1016600030E020E070E060E02417350719F06115E4
:10167000710511F0CB010895A081B181A817B907B8
:1016800009F4BF012F5F3F4F3696EECF8091A50240
:1016900081111CC062D268D2909398028093970205
:1016A0000E9447150E94591590939C0280939B02BB
:1016B0000E94D7190E94DE1990939A028093990292
:1016C00081E08093A50290E080E0089584EF9FEF91
:1016D00008958F929F92AF92BF92CF92DF92EF9236
:1016E000FF920F931F93CF93DF93CDB7DEB72A9767
:1016F0000FB6F894DEBF0FBECDBF1A8619861886C6
:101700001F821E821D821C821B821A821982809176
:10171000A50207EF1FEF882309F49CC08E010D5F1F
:101720001F4F9E012B5F3F4FAE01495F5F4FBE01D0
:10173000675F7F4F90E080E00E94571B8C0100970D
:1017400021F00596029708F0DBC029853A8521151E
:10175000310509F402C1ED80FE804B815C81B70147
:10176000640F751F8F8198858617970708F4F5C059
:10177000E20EF31ED7019C91903C09F07FC04230ED
:10178000510508F47BC011968C914091A3025091B1
:10179000A402452B09F49CC0913F08F071C02CE1D4
:1017A000290F2D3008F48BC02DE2290F203108F4C9
:1017B00089C0903C21F48150823008F483C088E3D2
:1017C000890F8B3008F481C097ECC92E9AE0D92E8E
:1017D000E1EBFAE06D817E81AE014F5F5F4F89855D
:1017E0009A8509955C01C114D104A1F189809A8080
:1017F0008114910479F18B819C818815990508F4F5
:1018000087C010E000E04B815C8170E060E0C701C0
:101810000E94412A01151105E9F449815A8169851F
:101820007A858D819E81680F791FC501F601099522
:10183000E980FA800D811E812F81388549855A857E
:101840006FEF7FEF81E090E00E94F31A8C01892B0B
:1018500009F056C0C8012A960FB6F894DEBF0FBE35
:10186000CDBFDF91CF911F910F91FF90EF90DF904F
:10187000CF90BF90AF909F908F90089580E085CFDC
:1018800030E020E0220F331FF901E956FD4F0190AF
:10189000F081E02D309709F497CF892F90E00995DA
:1018A000009709F491CFDC011296ED91FC9113970A
:1018B0001496CD90DC90309709F08CCF1FC021E0BA
:1018C00030E0E0CF22E030E0DDCF23E030E0DACFDF
:1018D000D12CC12CE9EBFAE09F3F09F07BCFE091DE
:1018E0009702F0919802309721F4C90104EF1FEF9D
:1018F0000CC08FEF90E009950097A9F604EF1FEF59
:1019000089859A85009709F4A5CF0E94451DA2CF2D
:101910000E94201C8C0189859A850E94451D70E0DB
:1019200060E0C4010E94B91B98878F830E94F01A5F
:101930009E838D836F8178856115710559F0C8018B
:101940000E94D11E9A87898706EF1FEF892B09F025
:1019500058CF59CF08EF1FEF56CF08EF1FEFD0CF6A
:101960002091A502222319F020E00C945E1587EF48
:101970009FEF08958091A3029091A40208950E9480
:10198000E3190E943D19F5D0E7E9F2E088E0DF01B4
:101990001D928A95E9F71092A50290E080E00895E3
:1019A0000C949A1721E040E050E0BA010C945E15C7
:1019B00086E090E0FA019183808390E080E00895D2
:1019C00047E050E06FE571E047CEDF92EF92FF9283
:1019D0000F931F93CF93DF938A01EC01C60FD71F9C
:1019E000E090A902F090AA02D9800E94081CD816A3
:1019F000190678F082E090E0F801918380838EEF01
:101A00009FEFDF91CF911F910F91FF90EF90DF90AB
:101A10000895EF2841F482E090E0F80191838083FB
:101A200084EF9FEFEECF89818093A80290E001962A
:101A3000F8019183808390E080E0E3CFCF93DF9340
:101A4000EA010E944B18882321F00E94151C0E9475
:101A50004C1882E090E0998388838BEF9FEFDF91B1
:101A6000CF910895CF93DF93EB0186E0FB011192B4
:101A70008A95E9F78FEF8883D6DD8983E5DD8A8350
:101A8000E6DD9D838C83DF91CF910895CF93DF9323
:101A9000EA010E944E18811109C082E090E099830A
:101AA000888385EF9FEFDF91CF91089590E080E0EC
:101AB000B5DD81E090E09983888390E080E0F3CF0A
:101AC0000F931F93CF93DF93EA018C01060F171F2B
:101AD0000E944E1881110BC082E090E099838883A8
:101AE00085EF9FEFDF91CF911F910F910895F8013E
:101AF0008181823038F082E090E0998388838EEF94
:101B00009FEFF0CF81E090E089DD88E090E099835D
:101B1000888390E080E0E6CFCF93DF930097D1F405
:101B2000EB01FB01329686E0DF011D928A95E9F711
:101B30008FEF888385E089831A820E94081C8B833B
:101B40000E94071C9D838C8381E08E838F83DF91AD
:101B5000CF910895DF91CF911ACD80EE9CE09093C4
:101B6000A7028093A60208958091A6029091A702F1
:101B700008951092A7021092A60208958091A902DA
:101B80009091AA020895411105C061157105810562
:101B9000910561F06093A9027093AA028093AB0251
:101BA0009093AC024093AD0281E0089580E00895E7
:101BB000FF920F931F93CF93DF938A01EC01C60F1F
:101BC000D71FF9800E94081CF816190668F082E0F9
:101BD00090E0F801918380838EEF9FEFDF91CF91AA
:101BE0001F910F91FF9008956C817D818E819F815F
:101BF0004B81C9DF811108C082E090E0F801918338
:101C0000808384EF9FEFEACF89818093A80290E0E0
:101C10000196F8019183808390E080E0DFCFCF933D
:101C2000DF93EA01FC01E60FF71F6481758186816D
:101C300097814381A8DF811109C082E090E09983F8
:101C4000888384EF9FEFDF91CF91089581E090E04A
:101C50009983888390E080E0F6CFE9EAF2E0408162
:101C6000518162817381480F511D611D711D408337
:101C70005183628373830895CF93C091A8024C2F40
:101C800050E06091A9027091AA0201960E94382A40
:101C90008C2FE3DF1092A802CF910895009799F45A
:101CA0008091A9029091AA022FEFFB012083892B3A
:101CB00059F02091A80230E02F5F3F4F24173507DD
:101CC00019F4CB01D9CF63CC0895009799F4809192
:101CD000A9029091AA022FEFFB012083892B59F0D2
:101CE0002091A80230E02F5F3F4F2417350719F4E9
:101CF000CB01C2CF4CCC089523E1AC01249FC0019D
:101D0000259F900D1124E091B202F091B302E80FEB
:101D1000F91F238134812250310981E022303105BD
:101D200008F080E008950F931F93CF93DF93009105
:101D3000B4021091B502D0E0C0E080E00C171D079E
:101D400049F491E0811190E0892FDF91CF911F91AB
:101D50000F9108958111F5CFCE01CEDF2196EECF00
:101D6000A091B202B091B302109729F12091B40270
:101D70003091B50282179307F0F453E1589F900118
:101D8000599F300D1124A20FB31FED91FC911197B3
:101D9000309789F012968C91681768F48DE0689FEF
:101DA000E00DF11D112480819181892B21F081E0CA
:101DB0009281491708F080E008959C0143E1429F19
:101DC000C001439F900D1124E091B202F091B30243
:101DD000E80FF91F8385823091F481E090E06581FE
:101DE000768140913C0150913D016417750711F4D3
:101DF00090E080E0892B19F081E0232B09F080E04E
:101E00000895FC01A081B1818DE0689FA00DB11DF6
:101E1000112413964D915C9185859685489F90017C
:101E2000499F300D589F300D1124C9010196611151
:101E300003C0478144FD04960895EF92FF920F93EB
:101E40001F93CF93DF93EA01FC01E60FF71F028196
:101E50001381E480F5804F2D6E2DC80181DF811143
:101E60000DC082E090E0998388838EEF9FEFDF9131
:101E7000CF911F910F91FF90EF900895C8013CDF23
:101E8000882339F082E090E09983888388EF9FEF80
:101E9000EECF1093430100934201E0924401F0928F
:101EA000450181E090E09983888390E080E0DFCF76
:101EB000CF92DF92EF92FF920F931F93CF93DF9316
:101EC0007A01EC01C60FD71FC0904201D0904301A8
:101ED0000091440110914501412F602FC60140DF60
:101EE000811110C082E090E0F701918380838AEF36
:101EF0009FEFDF91CF911F910F91FF90EF90DF90B7
:101F0000CF900895C601F8DE882341F082E090E08A
:101F1000F7019183808388EF9FEFEBCF4C815D8148
:101F20006E817F819A8189818F3F41F082E090E0CC
:101F3000F701918380838EEF9FEFDBCFE3E1EC9D90
:101F40009001ED9D300D1124E091B202F091B302A9
:101F5000E20FF31F0190F081E02D2DE0029FE00DD4
:101F6000F11D11240190F081E02D27E0129FE00D7A
:101F7000F11D1124808391838B8182834383548359
:101F8000658376831F5F1093450181E090E0F70140
:101F90009183808390E080E0ACCFEF92FF920F932B
:101FA0001F93CF93DF937A018C01060F171FC09107
:101FB000B202D091B302209781F021E030E0F80125
:101FC000828193814091B4025091B50284179507A4
:101FD00010F030E020E0232B71F482E090E0F70174
:101FE000918380838EEF9FEFDF91CF911F910F91AF
:101FF000FF90EF90089543E1489F9001499F300D75
:102000001124C20FD31F78DE882341F082E090E0D4
:10201000F7019183808388EF9FEFE6CFF801248159
:10202000358120383105C8F687818111D6CF4181AD
:10203000842F90E08F7E009741F082E090E0F701DE
:102040009183808386EF9FEFCFCF4F833E832D8395
:10205000268128871986223010F421E0288721E084
:1020600030E0F70131832083BFCF88E090E0FA01B0
:102070009183808390E080E00895FB018FEF80835F
:1020800081E181838FEF9FEF9383828380E890E0EB
:1020900095838483168217820895FB018FEF8083D6
:1020A00091E0918382839383848384E3858381E0B9
:1020B00090E0978386830895DF92EF92FF920F93CB
:1020C0001F93CF93DF93EA01FC01E60FF71F818195
:1020D000813071F082E090E0998388838FEF9FEFE9
:1020E000DF91CF911F910F91FF90EF90DF900895B6
:1020F00082819381D4802581E680F7800091B202AD
:102100001091B3020115110539F482E090E0998332
:1021100088838CEF9FEFE4CF4091B4025091B502D9
:102120008417950738F082E090E0998388838EEFDA
:102130009FEFD6CF892B39F082E090E09983888396
:1021400086EF9FEFCDCF8D2D8D7FB1F72130A1F799
:1021500081E0D11006C091E0E916F10431F080E091
:1021600004C0E2E0EE16F104D0F3882329F390E0F6
:1021700080E0C2DD882339F082E090E09983888393
:1021800088EF9FEFADCFF801D38681E08487F68694
:10219000E586108A178681E090E09983888390E035
:1021A00080E09ECF4CE050E069E871E055CA8F9224
:1021B0009F92BF92CF92DF92EF92FF920F931F9365
:1021C000CF93DF93EA01FC01E60FF71F8281938131
:1021D0000481B580E091B202F091B302309791F49E
:1021E00082E090E0998388838CEF9FEFDF91CF911D
:1021F0001F910F91FF90EF90DF90CF90BF909F9035
:102200008F9008952091B4023091B5028217930700
:1022100038F082E090E0998388838EEF9FEFE6CFDD
:1022200023E1289F6001299FD00C1124EC0DFD1D96
:10223000E080F180E114F10499F28281081748F7F7
:102240008DE0089F80011124E00EF11EF7018081CE
:102250009181892B29F6BB20E1F2F7E0BF9E400176
:102260001124C4010E940C1DF70191838083E09129
:10227000B202F091B302EC0DFD1D0190F081E02D52
:10228000E00FF11F80819181009739F482E090E0A6
:10229000998388838DEF9FEFA9CFA40170E060E060
:1022A0000E94412A8091B2029091B302C80ED91EB9
:1022B000F60180819181080F191FF801B28281E037
:1022C00090E09983888390E080E090CFAF92BF92B6
:1022D000CF92DF92FF920F931F93CF93DF93EA0188
:1022E000FC01E60FF71F82819381F4800091B20216
:1022F0001091B3020115110581F482E090E09983F9
:1023000088838CEF9FEFDF91CF911F910F91FF900A
:10231000DF90CF90BF90AF9008952091B40230919C
:10232000B5028217930738F082E090E099838883A2
:102330008EEF9FEFE8CF2FEF2F0D2C3FA8F723E173
:10234000289F6001299FD00C11240C0D1D1DF80140
:1023500080819181892B89F6FDE0FF9E5001112437
:10236000C5010E940C1DF80191838083E091B202A7
:10237000F091B302EC0DFD1D80819181009739F43D
:1023800082E090E0998388838DEF9FEFBCCFA50119
:1023900070E060E00E94412AE091B202F091B30245
:1023A000EC0DFD1DF28281E090E09983888390E03E
:1023B00080E0A9CFCF92DF92EF92FF920F931F930D
:1023C000CF93DF93860F971FFC01028113818091C9
:1023D000B2029091B302892B81F082E090E0FA0181
:1023E000918380838CEF9FEFDF91CF911F910F91AD
:1023F000FF90EF90DF90CF900895C801B0E0A0E08B
:102400000197A109B1098F3F9F4FA105B10540F088
:1024100082E090E0FA01918380838EEF9FEFE4CF1A
:102420007A0183E1809F6001819FD00C1124C60155
:102430000E940C1DEC01009741F482E090E0F7014E
:10244000918380838DEF9FEFCFCFA60170E060E096
:102450000E94412AD093B302C093B2021093B502F6
:102460000093B40290E080E02FEF3FEF41E061E0A5
:1024700070E08017910741F481E090E0F7019183CB
:10248000808390E080E0B0CF3A8B298B1B864C870D
:102490007E876D87188A1F8601966396EACFEF9232
:1024A000FF921F93CF93DF93EC0110E0F12CE12C0E
:1024B0006A811617A8F070E0660F771FAE014F5EB5
:1024C0005F4FC7010E94711D009721F02FEF3FEF72
:1024D0003A8B298BDF91CF911F91FF90EF90089558
:1024E000612FCE018EDC61E070E00E94B91BE8161E
:1024F000F90608F47C011F5FDBCFF8942091B0024D
:102500003091B10281E02115310509F080E0232BE3
:1025100009F0789408952F923F924F925F926F92B4
:102520007F928F929F92AF92BF92CF92DF92EF9263
:10253000FF920F931F93CF93DF933C01660E771E9C
:10254000F301828193814C01B12CA12CC091B20284
:10255000D091B302209769F021E030E06091B4029D
:102560007091B5028617970710F030E020E0232B1A
:10257000D1F482E090E0FA01918380838EEF9FEFA7
:10258000DF91CF911F910F91FF90EF90DF90CF904F
:10259000BF90AF909F908F907F906F905F904F9083
:1025A0003F902F9008958092460190924701A0920B
:1025B0004801B092490163E1689F9001699F300D25
:1025C0001124C20FD31FF3018181833040F082E0D8
:1025D00090E0FA019183808386EF9FEFD1CF2A01AB
:1025E0002B813C81232BF1F4288139819F8191FF3C
:1025F0002EC0232B09F46FC02091B7029A81422F7D
:10260000490F5527551FBA0141E050E06138710567
:1026100014F050E040E0452B09F45DC02A87920F8A
:102620009093B7028150823008F481C066DF88231E
:1026300009F4D8C0F3018181813009F48DC008F418
:102640007BC0823009F4C6C090E080E0ADC0232B8F
:1026500009F441C02091B6029A81E22FE90FFF27C9
:10266000FF1F41E050E0ED3FF10514F050E040E085
:10267000452B89F12A87920F9093B602D3CFA08180
:10268000B181A20FB31F11966C91060F111D019617
:10269000295F3F4F8417950794F38D859E85089F8A
:1026A0001001099F300C189F300C1124C114D10463
:1026B000D1F48F8184FF17C00E94071CF5E02F0E14
:1026C000311C21E08215930508F420E0A701435F47
:1026D0005F4F21110EC082E090E0F2019183808370
:1026E00087EF9FEF4DCF0E94071C2FEF221A320A6F
:1026F000E8CF88819981E80EF91EF70114830383DE
:10270000FFEFCF1ADF0A7A018A818C151D0409F0C8
:102710000CF48CCFE881F981EE0DFF1D428150E071
:1027200030E020E010E000E090E080E0B3CFF12C5A
:10273000E12CD12CC12CE8CF81E090E09C838B83ED
:10274000F2DA882309F480CF81E090E00E940E0B3A
:1027500080E40E941C0B78CF89899A89019661F0E8
:1027600083E090E09C838B8382E090E00E940E0BDC
:1027700080E40E94160B68CF8D819E8120913C01E0
:1027800030913D0182179307D1F46091400170911F
:102790004101AE014F5E5F4F80913E0190913F013C
:1027A0000E94901E0097E1F2789422E030E0F2015E
:1027B00031832083892B99F08DEF9FEFE1CE89281B
:1027C0008A288B2869F6892B59F6CE0168DE188A8B
:1027D0001F86E8CF82E090E09C838B8335CF90E02A
:1027E00080E0CECE82E090E0F2019183808385EF9D
:1027F0009FEFC6CE8F929F92AF92BF92CF92DF9201
:10280000EF92FF920F931F93CF93DF93EA018C0116
:10281000060F171FF8018181833098F082E090E065
:102820009983888386EF9FEFDF91CF911F910F915E
:10283000FF90EF90DF90CF90BF90AF909F908F90E0
:1028400008958091B2029091B302892B61F081E0EA
:1028500090E02091B4023091B502232B11F490E066
:1028600080E0892B39F482E090E0998388838EEFB1
:102870009FEFDACF42DE882309F4DFC0F8018181BF
:10288000813009F495C0E8F0823099F42091B402C7
:102890003091B502E091B202F091B30290E080E095
:1028A00041E050E02817390709F0BDC03CDA81113A
:1028B00017C0789481E090E09983888390E080E06D
:1028C000B3CF2091B4023091B502E091B202F09101
:1028D000B30290E080E041E050E02817390741F46E
:1028E00081E090E00E940E0B80E40E941C0BE1CF7F
:1028F00063817481672B11F054834383019673962F
:10290000ECCFE091B202F091B302E00FF11F23810E
:10291000348122303105D9F4218932892F3F3F4F4C
:10292000B1F42581368140913C0150913D0124173D
:10293000350761F5AF014F5E5F4F609140017091C7
:10294000410180913E0190913F010E94901EEFEF66
:10295000CE1ADE0AEE0AFE0A0D5E1F4F4091B40247
:102960005091B50270E060E0C416D506E606F706A1
:102970003CF5009731F27894892B09F49BCF82E0E3
:1029800090E0998388838DEF9FEF4ECFC114D104DF
:10299000E104F104E1F6232BD1F6CF0180DDE091D3
:1029A000B202F091B302E00FF11F108A1786CFCF69
:1029B00010E000E090E080E0C12CD12C7601CECF79
:1029C0000097C9F610E000E0812C912C540183E0BF
:1029D000E82EF12C1AC0E091B202F091B302E00FA0
:1029E000F11F83819481029749F4F482E38282E0AB
:1029F00090E00E940E0B80E40E94160BFFEF8F1AEE
:102A00009F0AAF0ABF0A0D5E1F4F8091B4029091DA
:102A1000B502B0E0A0E088169906AA06BB06DCF273
:102A200090E080E0A8CF638174816230710511F479
:102A3000548343830196739635CF82E090E0998367
:102A4000888385EF9FEFF0CE0097B9F48FEFFB01FD
:102A50008083209146013091470143E1429FC001AC
:102A6000439F900D1124E091B202F091B302E80F60
:102A7000F91F8285FB01818308950C94C70A88E0C1
:102A800090E0FA019183808390E080E008951092B5
:102A9000B1021092B002E2EBF2E086E0DF011D929B
:102AA0008A95E9F782ED90E19093AF028093AE02B0
:102AB00008958091AE029091AF0208952F923F92B7
:102AC0004F925F926F927F928F929F92AF92BF923E
:102AD000CF92DF92EF92FF920F931F93CF93DF93EA
:102AE000CDB7DEB72F970FB6F894DEBF0FBECDBFC0
:102AF000F894E091B002F091B1023196F093B102F6
:102B0000E093B00278944090B2025090B302411426
:102B1000510409F40CC2E091B402F091B502EF2B1C
:102B200009F405C22D8749875A876B877C87988768
:102B30008F831201B12CA12C10E000E08091B4022F
:102B40009091B502A816B90618F40115110529F1DE
:102B5000F8948091B0029091B10201979093B102E4
:102B60008093B0027894C8012F960FB6F894DEBF18
:102B70000FBECDBFDF91CF911F910F91FF90EF90CE
:102B8000DF90CF90BF90AF909F908F907F906F908D
:102B90005F904F903F902F9008957101E418F508D1
:102BA000D10117968C91179781FD54C013968D9182
:102BB0009C911497039709F04DC015968D919C91A7
:102BC000EF81F8858E179F0709F044C0B50190E0AA
:102BD00080E07ED48A832091B2023091B3023D839B
:102BE0002C833D85332309F44CC04C815D81452BFA
:102BF00009F49AC18091B4029091B502A816B90661
:102C000008F092C1C501D9D88823E9F06C817D8193
:102C10006E0D7F1D7D836C83DB011F968D919C91D2
:102C2000892B89F0D12CC12CF12CE12CAC81BD81F8
:102C300012968C9112978E151F0409F094F45096F9
:102C40001C921E921F972A81222321F0B50190E049
:102C500080E040D43FEFA31AB30A43E1240E311CB5
:102C60006DCFAC81BD81ED91FC91EC0DFD1D858199
:102C700096810BD7BFEFEB1AFB0AEDE0CE0ED11C0D
:102C8000D5CFEC81FD81309709F44EC18091B4021B
:102C90009091B502A816B90608F046C1EE0DFF1DC9
:102CA000FF87EE87C50189D88B83882339F1AE85EC
:102CB000BF851F968D919C915097019621E01D969E
:102CC0004D915C918417950709F020E02E831982BD
:102CD000712C10E000E0AE85BF8512968C917816BD
:102CE00008F45DC0EE85FF8587859089019665852E
:102CF00076850E94E329908B8787A5CFB1E0BE83BC
:102D0000E6CF992493946BC087D6F601968385838A
:102D100082C0D601ED90FC90B7E06B9EE00CF11CF8
:102D20001124F7016381748180818F3F61F121E07B
:102D300030E002C0220F331F8A95E2F7C901092E45
:102D4000000CAA0BBB0BFB01408151816281738196
:102D500084239523A623B72321E0892B8A2B8B2B51
:102D600009F420E0D4012C93D70111968C91F6013F
:102D700023853485820F932F911D880E991E14860A
:102D8000138663949BC0418150E0C4010E94382A9D
:102D9000EBCF998206EF1FEFC5C01982C3C0F9813E
:102DA000F111A0CFEDE07E9E70011124AE85BF85AC
:102DB000CD90DC90CE0CDF1C13D49D838C83BB8123
:102DC000BB2309F49ECF81E0EE85FF8527853089FE
:102DD000232B09F080E0982E882309F458C0672D32
:102DE0008E859F850ED8D60118969C938E93179743
:102DF00061E070E0BED4EE85FF85218932892F3FE6
:102E0000320709F481CFBC01C901CBD7D601169690
:102E10009C938E931597D60115968D919C9116973C
:102E2000009709F4B6CFEC81FD818E0F9F1F1A9693
:102E30009C938E931997AE85BF85ED91FC91119768
:102E4000EE0EFF1EF70121853285148613861A9631
:102E50008C91870DD9018D93711016C0EE85FF8579
:102E6000878184FF11C049855A856B857C85F9016E
:102E70004183528363837483F70183859485049629
:102E8000A80FB91F14861386F701B287A187D60150
:102E900015968D919C911697892B09F443C0EE8568
:102EA000FF852581368180913C0190913D01281755
:102EB000390779F019968D909C90612CD601129665
:102EC0008C911297681608F424CF1A969C928E92D1
:102ED0001997BE81BB2309F460CF61E070E0F60171
:102EE0008781908546D4D6011796ED90FC9018976F
:102EF00015964D915C91E1E0F0E0BA81BB2311F0B1
:102F0000F0E0E0E00C811D819C01B5018827992744
:102F10008E1B9F0B68D38C01892B21F0F6018581D4
:102F20009681B3D57394D7CE0FEF1FEF8CCE10E000
:102F300000E00ECE2F923F924F925F926F927F925F
:102F40008F929F92AF92BF92CF92DF92EF92FF92B9
:102F50000F931F93CF93DF938091B2029091B302AE
:102F600010E000E0892BA9F0C8DA0AEF1FEF8823F0
:102F700081F02090B4023090B502C091B202D0919D
:102F8000B302D12CC12C10E000E02C143D04A9F4B4
:102F90007894C801DF91CF911F910F91FF90EF902E
:102FA000DF90CF90BF90AF909F908F907F906F9069
:102FB0005F904F903F902F900895C6010E94DD0EC4
:102FC000882309F18B819C810397E9F48F85988987
:102FD000892BC9F0B60190E080E07AD221E030E0A0
:102FE000882311F030E020E044245524421A530A8B
:102FF000B12CA12C912C812C8A818815190409F0FF
:1030000038F4188A1F864FEFC41AD40A6396BDCFCE
:10301000E881F981EA0DFB1D85819681892BA1F15B
:1030200061E070E087819085A4D33C01D9D28C0106
:10303000E881F981EA0DFB1D818592852581368124
:10304000200F311FAC01421B530B9A014781508561
:10305000421B530B70E060E00E94412AE881F98135
:10306000EA0DFB1DE780F084458156819301B6018E
:10307000C201B9D28C01892B39F0E881F981EA0DBE
:10308000FB1D8581968101D55FEF851A950A8DE03C
:10309000A80EB11CB1CF31CA789408952F923F92F7
:1030A0004F925F926F927F929F92AF92BF92CF9218
:1030B000DF92EF92FF920F931F93CF93DF9300D095
:1030C00000D000D0CDB7DEB70091B2021091B302AC
:1030D000992493940115110509F43EC0A090B402FF
:1030E000B090B5020ADA982E8823B1F11092B3029B
:1030F0001092B2021092B5021092B4021092B6026F
:103100001092B7028FEF9FEFDC01809346019093FE
:103110004701A0934801B093490178947AD31E8364
:103120000D83C12CD12C7601C501B0E0A0E08983CC
:103130009A83AB83BC8322242A94322C89819A817E
:10314000AB81BC81C816D906EA06FB06F4F0C801BB
:103150009CD480E40E941C0B892D26960FB6F8940F
:10316000DEBF0FBECDBFDF91CF911F910F91FF90BA
:10317000EF90DF90CF90BF90AF909F907F906F9037
:103180005F904F903F902F900895AD81BE8115962E
:103190008D919C91169720913C0130913D018217B1
:1031A0009307D1F451968D919C91E9D5ED81FE81E3
:1031B00080819181B12CA12C412C512C3201892B81
:1031C00089F5BFEFCB1ADB0AEB0AFB0AED81FE8122
:1031D0007396FE83ED83B2CFC114D104E104F104F0
:1031E00029F7892B19F7ED81FE81818992898F3F1B
:1031F000980709F024D5AD81BE8152963C922E925B
:103200005197D4CF8A0D9B1DDC018D919C91009725
:1032100009F03BD4BFEF4B1A5B0A6B0A7B0AEDE067
:10322000AE0EB11CAD81BE818D919C91119712960D
:103230004C9150E070E060E0441655066606770653
:103240000CF323D4BECFCF93DF93EA0127DF8111A4
:1032500009C082E090E09983888385EF9FEFDF913A
:10326000CF91089581E090E00E940E0B81E090E004
:103270009983888390E080E0F2CF10DF1092AF0254
:103280001092AE02089542E050E061ED71E00C94BE
:103290002C0BFF920F931F93CF93DF938A01EC01C6
:1032A000C60FD71FF980B4D20897F816190671F027
:1032B00068F082E090E0F801918380838EEF9FEFC9
:1032C000DF91CF911F910F91FF9008956C817D81C7
:1032D0008E819F814B810E94C30D811108C082E0C5
:1032E00090E0F8019183808384EF9FEFE9CFF9802C
:1032F0000E94BE0D4F2D50E0BE01685F7F4F0E94BF
:10330000382A89810E942D0E81E090E0F801918396
:10331000808390E080E0D4CFDF92EF92FF920F9312
:103320001F93CF93DF938A01EC01C60FD71F0E9432
:10333000BE0D7C01D9806CD2DD2059F0029721E0CE
:1033400030E0D816190619F010F030E020E0232BF9
:1033500079F482E090E0F801918380838EEF9FEF13
:10336000DF91CF911F910F91FF90EF90DF90089523
:10337000EF2841F482E090E0F8019183808384EFAC
:103380009FEFEECFF9800E94BE0D4F2D50E0BE01A1
:103390006E5F7F4F0E94382A89810E942D0E81E046
:1033A00090E0F8019183808390E080E0D9CF83E4BE
:1033B00099E19093B9028093B80208958091B80280
:1033C0009091B90208950895FC01118210829383AF
:1033D00082830895DB011D921C92DC011296ED910F
:1033E000FC9113977183608313967C936E9312976D
:1033F0000895FC0180819181DB018D939C93A081D4
:10340000B181109741F08D919C9191838083892B9C
:1034100011F4F383E2830895FC0180819181DB0143
:103420008D939C93892B11F47383628371836083E2
:103430000895FC0111821082938382830895CF93B3
:10344000DF9300D0CDB7DEB71A821982F894BE019F
:103450006F5F7F4F8FEB92E0CCDF89819A8100977D
:1034600009F013D389819A81892B89F7BE016F5F97
:103470007F4F83EC92E0BDDF89819A81009709F04C
:1034800004D389819A81892B89F778940F900F90C2
:10349000DF91CF910895CF93DF9300D0CDB7DEB702
:1034A0001A821982F894BE016F5F7F4F8BEB92E016
:1034B000A0DF89819A81009709F0E7D289819A81FA
:1034C000892B89F778940F900F90DF91CF91089511
:1034D00081E0089590E080E00895EF92FF920F93CD
:1034E0001F93CF93DF9300D0CDB7DEB71A82198236
:1034F0008091BA0207EF1FEF8823A1F1F894BE0173
:103500006F5F7F4F83EC92E074DF789489819A81BA
:10351000EE24E394F12C892B51F4F894BE016F5FF3
:103520007F4F8FEB92E065DF7894F12CE12C89815D
:103530009A810EEF1FEF0097A9F0FC0142815381A1
:1035400064E070E070D68C01892B61F0F894698199
:103550007A81C701880F991F880F991F81549D4F49
:103560005BDF7894C8010F900F90DF91CF911F918E
:103570000F91FF90EF9008950F931F93CF93DF93D8
:1035800000D000D0CDB7DEB71C821B821A82198210
:103590008091BA0207EF1FEF8823C1F0AE014D5FA3
:1035A0005F4F64E070E0CE010196B0D68C01892BAC
:1035B00069F4E981FA818B819C8193838283F894F9
:1035C00069817A818BEB92E005DF7894C8010F90D6
:1035D0000F900F900F90DF91CF911F910F91089551
:1035E000B5D7049608958F929F92AF92BF92CF92D3
:1035F000DF92EF92FF920F931F93CF93DF9300D050
:10360000CDB7DEB71A821982BC016F5F7F4F63307E
:10361000710598F0AA24AA94BA2CC5010F900F90B6
:10362000DF91CF911F910F91FF90EF90DF90CF909E
:10363000BF90AF909F908F9008954115510551F321
:10364000480159018A016C01CBDF8815990511F7F2
:10365000E114F104F9F28E0D9F1DA816B906D0F2FF
:103660008091BA028823F1F0F894B5016450710991
:103670009701AE014F5F5F4FC8010496DCD65C0135
:10368000892B71F489819A81F80193838283C60121
:10369000880F991F880F991FB80181549D4F9ADE9A
:1036A0007894BBCF87EFA82EBB24BA94B6CFAF9245
:1036B000BF92CF92DF92EF92FF920F931F93CF931F
:1036C000DF9300D0CDB7DEB71A821982892B09F0BB
:1036D00047C06115710509F443C04115510509F44E
:1036E0003FC02115310509F43BC001151105C1F199
:1036F0008091BA028823B9F179016A015B01F894DB
:10370000BE016F5F7F4F8BEB92E073DE789489810F
:103710009A81009759F1DC0112966D917C91A80174
:103720000496A2D68C01E981FA81D501ED93FC9330
:10373000828193810496F6019183808351DFD701C2
:103740008D939C93C8010F900F90DF91CF911F91A3
:103750000F91FF90EF90DF90CF90BF90AF900895C2
:103760000FEF1FEFEFCF07EF1FEFECCF0EEF1FEFC5
:10377000E9CFCF93DF93EC01672B71F4F0D68C1770
:103780009D0760F0E3D62496C80FD91FE2D68C0FB0
:103790009D1FDF91CF910895DFD6F1CF90E080E0BB
:1037A000F8CF0F931F93CF93DF932091BA0221118B
:1037B0002BC08B01EC018FEB92E006DE83EC92E0F4
:1037C00003DE8BEB92E000DE97D00097C1F4C7D602
:1037D00070E060E0CEDF4AE451E062E070E081D169
:1037E000009769F480914A0190914B01CAD6B801C3
:1037F000CE01FFD4009719F421E02093BA02DF91A3
:10380000CF911F910F91089584EF9FEFF8CFA4C639
:10381000A6C6CF93DF93A6D6EC01892B11F40FDE59
:103820003ADECE01DF91CF910895CF93DF939AD600
:10383000EC01892B09F403DECE01DF91CF910895CD
:1038400080914A0190914B010895CF93DF9380912D
:10385000BA02D0E0C0E08823D1F098D6EC01892BE1
:10386000B1F4EDDD18DE80914A0190914B01E7D172
:10387000E8D2EC01892B59F48FEB92E0DADD83EC8E
:1038800092E0D7DD8BEB92E0D4DD1092BA02CE014C
:10389000DF91CF910895EF92FF920F931F93CF93F3
:1038A000DF93EC017A018B010F5F1F4F0E9DA0018A
:1038B0000F9D500D1E9D500D112470E060E00E9480
:1038C000412A90E080E0F0E0E0E02FEFE816F90612
:1038D00039F4DF91CF911F910F91FF90EF900895F0
:1038E0001A8219822883309711F0D283C1830196FE
:1038F000FE01C00FD11FEACFCF92DF92EF92FF926D
:103900000F931F93CF93DF9303EE13E00C7F43E0FD
:1039100050E06CE471E082E591E018D48CE4E82E8C
:1039200081E0F82E92E5C92E91E0D92ECAE5D4E0C7
:10393000D7014D915D917D01F601619171916F010A
:10394000198308835D834C835B834A837F836E8303
:103950009B012F5F3F4F249FC001259F900D349FF7
:10396000900D1124998788870115110511F0C80160
:1039700092DF88859985080F191F2A96F2E5EF16C0
:10398000F1E0FF06A9F6E9ECF2E087E191E0DF0162
:103990009C011D9221503040E1F71092C802109214
:1039A000C702109279041092780410927D0410924C
:1039B0007C0410927B0410927A0410927F0410927F
:1039C0007E0410928104109280041092830410925D
:1039D000820410928704109286041092850410923B
:1039E0008404109289041092880410928B0410921F
:1039F0008A0410925704109256041092590410929F
:103A0000580490E080E0DF91CF911F910F91FF90DB
:103A1000EF90DF90CF9008950097F1F0F894A2E531
:103A2000B1E0EAE5F4E030E020E04D915D91481727
:103A30005907A8F0428153814115510581F08AE070
:103A4000829FF001839FF00D1124E65AFB4F808185
:103A50009181009759F4789490E080E008952F5F69
:103A60003F4F3A962330310501F7F5CFDC0111962F
:103A70006D917C91718360834150510953834283DE
:103A8000FC012193CF0178940895009749F1DC015E
:103A90008E91853041F4E0915804F09159043097AB
:103AA000F9F0CD0109948530D8F4282F30E0F8944E
:103AB0008FEF8C938AE0829FF001839FF00D112499
:103AC000E65AFB4F8081918112969C938E931197B9
:103AD000B183A083828193810196938382837894BA
:103AE0000895CF92DF92EF92FF920F931F93CF939F
:103AF000DF939C018CEC92E08C7F4115510509F419
:103B00009BC02115310509F497C06115710509F4B1
:103B100093C07A01AB01B9016D5F7F4F6C7F9B0150
:103B20002F5F3F4F249F8001259F100D349F100D64
:103B30001124F8942091780430917904232B59F4BE
:103B400020918004309181042115310569F12017FD
:103B5000310708F058C02091820430918304232B50
:103B600091F42091800430918104820F931F209161
:103B70008A0430918B042115310509F441C02017C6
:103B8000310708F056C07894CFEFDFEF86EF9FEF54
:103B9000F701D183C083DF91CF911F910F91FF90E7
:103BA000EF90DF90CF900895C3E0D0E0C090C702BF
:103BB000D090C80224E131E02C193D0920173107CB
:103BC00010F32AE02C9FF0012D9FF00D1124E65AEE
:103BD000FB4F918380835583448353834283778350
:103BE000668311870087009709F055DE0C0D1D1DB7
:103BF0001093C8020093C702789490E080E0C8CF89
:103C0000C4E0D0E0D3CFC3E0D0E02AE02C9FF001A5
:103C10002D9FF00D1124E65AFB4F9183808355832D
:103C200044835383428377836683009729F333DE8B
:103C3000E3CFC4E0D0E0E9CF8FEF9FEFACCF9C01A2
:103C40000397029708F069C0F89484E09AE0482F3F
:103C500050E0241735070CF44DC091E08AE0829FB4
:103C6000F001839FF00D1124E65AFB4F1182108260
:103C70001582148213821282178216829923B1F15F
:103C80008091780490917904892BA9F42091800483
:103C9000309181042115310571F08091C702909116
:103CA000C802821B930B9093C8028093C7021092A4
:103CB0008104109280048091820490918304892B66
:103CC000A9F420918A0430918B042115310571F0FB
:103CD0008091C7029091C802821B930B9093C802F7
:103CE0008093C70210928B0410928A04789490E01B
:103CF00080E00895949FF001959FF00D1124E65AFD
:103D0000FB4F40815181452B31F440855185452B36
:103D100011F481509CCF90E0A1CF8FEF9FEF0895D9
:103D20004115510549F1009739F16115710521F1EE
:103D3000F8942091560430915704232BB9F4209124
:103D4000580430915904232B89F49093570480939D
:103D500056047093590460935804789425E030E039
:103D600090E080E0FA0131832083089578942FEF6A
:103D70003FEF86EF9FEFF6CF8FEF9FEF0895059708
:103D800069F4F89410925704109256041092590452
:103D900010925804789490E080E008958FEF9FEFA0
:103DA00008956115710519F4F0E0E0E011C0853067
:103DB000910581F4E0915604F09157043097A1F3F6
:103DC000CB0101960995009779F3FC0185E0819379
:103DD000CF0108959C01235031092230310520F78D
:103DE0002AE0289FD001299FB00D1124A65ABB4F6D
:103DF0002D913C911197232BB9F216962D913C9160
:103E000017972617370780F2F89412962D913C9158
:103E100013972115310529F0ED91FC9111973097F9
:103E200011F47894C1CF4181528111965C934E93E5
:103E30002150310913963C932E93129781937894D5
:103E4000C7CFE0EEF3E086E7DF011D928A95E9F740
:103E5000E9ECF2E087E191E0DF019C011D92215045
:103E60003040E1F71092C8021092C702EAE5F4E090
:103E700082E3DF011D928A95E9F7E6E5F4E084E04C
:103E8000DF011D928A95E9F790E080E00895CF93D5
:103E9000DF93C0915801D0915901CF3FDC0759F40D
:103EA00007D4909359018093580197FF09C0D0938C
:103EB0005901C093580184EF9FEFDF91CF9108958E
:103EC00090E080E0FACF8230910528F480938C0452
:103ED00090E080E008958FEF9FEF08954F925F92FA
:103EE0006F927F92AF92BF92CF92DF92EF92FF924A
:103EF0000F931F93CF93DF9300D0CDB7DEB71A8215
:103F00001982009709F478C06115710509F474C02D
:103F1000209158013091590107EF1FEF2F3F3F4F7C
:103F200009F444C06B015C01412C512C3201F12C8D
:103F3000E12C10E000E09E012F5F3F4FA6014E19DB
:103F40005F09B5016E0D7F1D809158019091590157
:103F50000ED4892B09F04AC089819A81009741F4D7
:103F6000E114F10429F420918C04222309F441C0C6
:103F7000E80EF91EEC14FD04C8F480E8481684E845
:103F800058068EE16806710418F560E070E0CB0118
:103F90003BD72AE0420E511C611C711C0A3F4FEFB7
:103FA000140721F0043F8FEF1807A1F4C8010F9008
:103FB0000F90DF91CF911F910F91FF90EF90DF90C5
:103FC000CF90BF90AF907F906F905F904F9008958B
:103FD00001EF1FEF81E090E0013F2FEF120711F09A
:103FE00090E080E0892B09F4A6CFE0CF04EF1FEF2B
:103FF000DDCF0AEF1FEFDACF0FEF1FEFD7CF4F92D2
:104000005F926F927F92AF92BF92CF92DF92EF92C8
:10401000FF920F931F93CF93DF9300D0CDB7DEB7FE
:104020001A821982009709F478C06115710509F4A4
:1040300074C0209158013091590107EF1FEF2F3FB5
:104040003F4F09F444C06B015C01412C512C3201FB
:10405000F12CE12C10E000E09E012F5F3F4FA60104
:104060004E195F09B5016E0D7F1D80915801909129
:10407000590133D3892B09F04AC089819A8100976D
:1040800041F4E114F10429F420918C04222309F471
:1040900041C0E80EF91EEC14FD04C8F480E4481693
:1040A00082E458068FE06806710418F560E070E05D
:1040B000CB01AAD62AE0420E511C611C711C0E3F96
:1040C0004FEF140721F0043F8FEF1807A1F4C80148
:1040D0000F900F90DF91CF911F910F91FF90EF9074
:1040E000DF90CF90BF90AF907F906F905F904F9098
:1040F000089502EF1FEF81E090E0023F2FEF1207DB
:1041000011F090E080E0892B09F4A6CFE0CF04EF16
:104110001FEFDDCF0EEF1FEFDACF0FEF1FEFD7CF7F
:1041200080915801909159018F3F980749F0B8D27A
:10413000892B49F48FEF9FEF909359018093580199
:1041400090E080E0089584EF9FEF0895CF92DF9292
:10415000EF92FF920F931F93CF93DF9321E04115CE
:10416000510509F020E04150510921112CC0DC011A
:10417000FB01D12CC12C21E022C03FEFC31AD30A8E
:104180007D010D911D91E701EA80FB80E016F106AB
:10419000A8F420813181E280F380F182E0823383D0
:1041A0002283ED90FC9011979D0122503109E90185
:1041B000F982E88211961C930E9320E03296C41681
:1041C000D506D8F2D2CFDF91CF911F910F91FF90FA
:1041D000EF90DF90CF900895FC01680F791F90E079
:1041E00080E0E617F70709F408952191820F911DE9
:1041F000F8CF20918D04211113C049DE009791F46E
:1042000010929304109292041092910410929004D0
:1042100010928F0410928E0421E020938D04089553
:1042200084EF9FEF0895AF92BF92CF92DF92EF920B
:10423000FF920F931F93CF93DF93009709F460C011
:104240004630510508F45CC020918D04C7EFDFEFC4
:10425000222309F449C08C01060F171FF801C08002
:10426000D180C114D10409F44EC096012A5F3F4F9A
:104270004217530708F447C07C0180919204909143
:10428000930493838283B6016C5F7F4F5801A60E1F
:10429000B71EC801A1DFF5019183808364E070E05F
:1042A000C8011CDEEC01892BF9F481E090E00BDE03
:1042B000B601C801049612DEEC01892B91F462E08C
:1042C00070E0C5010BDEEC01892B59F4C701DDDB81
:1042D000809192049091930401969093930480931B
:1042E000920490E080E0EFDDCE01DF91CF911F914D
:1042F0000F91FF90EF90DF90CF90BF90AF90089517
:10430000CFEFDFEFF1CFC9EFDFEFEECF6F927F920C
:104310008F929F92AF92BF92CF92DF92EF92FF92D5
:104320000F931F93CF93DF9300D000D0CDB7DEB7AC
:10433000009709F47AC04115510509F476C020911F
:104340008D0407EF1FEF222309F44DC03A017B01D2
:104350005C0164E070E0CE01019651DE8C01892B96
:1043600009F041C009811A810115110509F45AC0EB
:10437000480186E0880E911CB701680D791D809177
:104380005A0190915B010DDD6C01009709F450C05A
:10439000A70170E060E00E94412A89819A81AB8187
:1043A000BC81EC0CFD1CF70181939193A193B19317
:1043B0007F0181E090E087DDB801C70120DE892B15
:1043C00031F562E070E0C701800F911F18DE8C01AB
:1043D000892BE9F490E080E076DDF501D182C0829E
:1043E000F30191828082C8010F900F900F900F907F
:1043F000DF91CF911F910F91FF90EF90DF90CF90C1
:10440000BF90AF909F908F907F906F90089590E0B5
:1044100080E059DDF50111821082F30111821082D2
:10442000C60133DB09EF1FEFDECF0FEF1FEFDBCF4E
:1044300006EF1FEFD8CF0097A1F04115510589F085
:104440002115310571F0F90136966E177F0748F096
:10445000DC012D933C93DA01ED93FC9390E080E036
:1044600008958FEF9FEF0895AF92BF92CF92DF92A2
:10447000EF92FF920F931F93CF93DF93009709F46E
:104480005FC04115510509F45BC06530710508F442
:1044900057C020918D04C7EFDFEF222391F1DC019B
:1044A000CD90DC9011971296ED91FC9196012A5FC8
:1044B0003F4FC9EFDFEF2617370719F5C0918E047C
:1044C000D0918F04209749F521E030E030938F049C
:1044D00020938E047A018C01F0939104E093900470
:1044E0005601B4E0AB0EB11CB50176DE0A0D1B1D02
:1044F000F801208131818217930729F5D701CD92E8
:10450000DC92CE01DF91CF911F910F91FF90EF9040
:10451000DF90CF90BF90AF9008952091900430919C
:1045200091042F5F3F4FCCEFDFEFE217F30790F2DC
:10453000CBEFDFEF2E173F0768F2D0E0C0E0CACF25
:10454000CFEFDFEFDECFC3EFDFEFDBCF84E090E034
:10455000089582E090E008958CEF9FEF089580E247
:1045600090E0089510929304109292041092910496
:104570001092900410928F0410928E0490E080E0CC
:10458000089590935B0180935A01089580918D0462
:10459000882391F0C5DD009789F41092930410925E
:1045A0009204109291041092900410928F04109231
:1045B0008E0410928D04089590E080E00895009795
:1045C00049F06115710531F0FC0111821082FB0187
:1045D000118210820895F3CF26E030E040E855E2E2
:1045E00060E070E090E080E000C0892B19F481EA7F
:1045F00094E0D7C508951F920F920FB60F92112421
:104600002F933F934F935F936F937F938F939F93DA
:10461000AF93BF93EF93FF938EE19BEF9093850051
:1046200080938400B7D0FF91EF91BF91AF919F919C
:104630008F917F916F915F914F913F912F910F904B
:104640000FBE0F901F9018958EE19BEF9093850001
:1046500080938400AFE6B0E08C918E7F8C93E0E88D
:10466000F0E080818C7F8083E1E8F0E08081877ECC
:10467000808380818460808380818C7F80838C9123
:1046800081608C930895EFE6F0E0808190819E7FB9
:1046900090838170089581E00895109294040895A4
:1046A00068EE73E080E090E0AFD390E080E00895A2
:1046B00026E030E040E052EC61E070E090E080E025
:1046C00094DF81EA94E0A3D4892B21F081EA94E07D
:1046D000B8D4F7CF90E080E00895CF92DF92EF92C8
:1046E000FF920F931F93CF93DF936B017A01E90140
:1046F0001982188281EA94E08AD4892B69F18601B3
:10470000CC24C39482E0D82E80919404811110C0EF
:1047100081EA94E096D40297B9F7C0929404F80124
:10472000D1928F0188819981019699838883ECCFFA
:10473000888199818E159F0578F481EA94E081D46F
:104740008F3F9807A9F3F80181938F0188819981A0
:10475000019699838883ECCF90E080E0DF91CF9140
:104760001F910F91FF90EF90DF90CF9008950F93DE
:104770001F93CF93DF93EA01890181EA94E0F5D595
:10478000F801D183C08390E080E0DF91CF911F9149
:104790000F910895CF92DF92EF92FF92809195044E
:1047A00091E0980F90939504882369F021E030E020
:1047B000309397042093960480939504FF90EF9094
:1047C000DF90CF9008957894E0915D01F0915E01C3
:1047D000C28CD38CE48CF58C0E946E02B701A601CA
:1047E00090E080E00E949101F894809195048150BE
:1047F000E3CF0F931F93CF93DF931092790510921D
:10480000780538D3E9DEC0915D01D0915E0119824F
:1048100018826FEF7FEFCB010E94140270E060E01E
:1048200090E080E00E949500009709F03AC00E9455
:104830004504F8947894BE016E5D7F4F8A819B8118
:104840000E949800892B59F46FEF7FEFCB010E94F3
:1048500027010E940E02882311F081E08EA3F894B4
:10486000F3DE0E941102882311F080E008C00E944C
:104870000E028111FACF81E09EA19111F6CF8093B3
:10488000780578940E94090B8C01789480917805C2
:1048900081110CC00E94D5040E94F301F89490E0AD
:1048A00080E0DF91CF911F910F9108950E94F10157
:1048B0000E9411028823D9F081E0809379059091BC
:1048C000790581E0911180E08093780580917905E8
:1048D0008111D9DE0130110529F40E94090B892BC1
:1048E00009F4DBDE0E94090B8C01D5DECFCF0E94DC
:1048F0000E028111E1CF81E09EA19111DECF80E017
:10490000DCCF5058BB27AA270ED057C148D130F072
:104910004DD120F031F49F3F11F41EF43DC10EF44F
:10492000E095E7FB0AC1E92F59D180F3BA17620776
:1049300073078407950718F071F49EF588C10EF48B
:10494000E0950B2EBA2FA02D0B01B90190010C019F
:10495000CA01A0011124FF27591B99F0593F50F4B7
:10496000503E68F11A16F040A22F232F342F44270F
:10497000585FF3CF469537952795A795F040539507
:10498000C9F77EF41F16BA0B620B730B840BBAF0D7
:104990009150A1F0FF0FBB1F661F771F881FC2F742
:1049A0000EC0BA0F621F731F841F48F48795779556
:1049B0006795B795F7959E3F08F0B3CF9395880F0D
:1049C00008F09927EE0F97958795089529D180F0E3
:1049D0009F3740F491110EF43BC160E070E080E835
:1049E0009FE3089526F01B16611D711D811DABC04C
:1049F000C5C07FD008F481E00895F8D088F09F57B3
:104A000090F0B92F9927B751A0F0D1F0660F771F1A
:104A1000881F991F1AF0BA95C9F712C0B13081F0FA
:104A200016D1B1E0089513C1672F782F8827B85F9A
:104A300039F0B93FCCF3869577956795B395D9F75B
:104A40003EF490958095709561957F4F8F4F9F4F65
:104A50000895E89409C097FB3EF490958095709571
:104A600061957F4F8F4F9F4F9923A9F0F92F96E9BA
:104A7000BB279395F695879577956795B795F1112F
:104A8000F8CFFAF4BB0F11F460FF1BC06F5F7F4FCC
:104A90008F4F9F4F16C0882311F096E911C07723DE
:104AA00021F09EE8872F762F05C0662371F096E8E7
:104AB000862F70E060E02AF09A95660F771F881FB6
:104AC000DAF7880F9695879597F90895A9D080F021
:104AD0009F3740F491110EF0BBC060E070E080E8B9
:104AE0009FEB089526F41B16611D711D811D2BC0BF
:104AF00045C0990F0008550FAA0BE0E8FEEF161607
:104B00001706E807F907C0F012161306E407F507C1
:104B100098F0621B730B840B950B39F40A2661F035
:104B2000232B242B252B21F408950A2609F4A140D8
:104B3000A6958FEF811D811D089597F99F6780E8E5
:104B400070E060E00895882371F4772321F0985095
:104B5000872B762F07C0662311F499270DC090513B
:104B6000862B70E060E02AF09A95660F771F881F09
:104B7000DAF7880F9695879597F908959F3F31F05A
:104B8000915020F4879577956795B795880F911D7B
:104B90009695879597F908959FEF80EC08950024E6
:104BA0000A941616170618060906089500240A9492
:104BB00012161306140605060895092E0394000C18
:104BC00011F4882352F0BB0F40F4BF2B11F460FFA7
:104BD00004C06F5F7F4F8F4F9F4F089557FD9058D0
:104BE000440F551F59F05F3F71F04795880F97FBB1
:104BF000991F61F09F3F79F087950895121613066B
:104C00001406551FF2CF4695F1DF08C01616170699
:104C10001806991FF1CF86957105610508940895CE
:104C2000E5DFA0F0BEE7B91788F4BB279F3860F432
:104C30001616B11D672F782F8827985FF7CF8695B6
:104C400077956795B11D93959639C8F30895E894C3
:104C5000BB2766277727CB0197F908954ADF08F429
:104C60008FEF08950BD0A9CF9ADF28F09FDF18F0BF
:104C7000952309F062CF90CF1124EACFAFDFA0F3E4
:104C8000959FD1F3950F50E0551F629FF001729FE1
:104C9000BB27F00DB11D639FAA27F00DB11DAA1F00
:104CA000649F6627B00DA11D661F829F2227B00D4D
:104CB000A11D621F739FB00DA11D621F839FA00DD8
:104CC000611D221F749F3327A00D611D231F849F28
:104CD000600D211D822F762F6A2F11249F5750407F
:104CE0008AF0E1F088234AF0EE0FFF1FBB1F661F1A
:104CF000771F881F91505040A9F79E3F510570F0D3
:104D00001CCFA6CF5F3FECF3983EDCF386957795FA
:104D10006795B795F795E7959F5FC1F7FE2B880FCD
:104D2000911D9695879597F908951F920F920FB64A
:104D30000F9211242F933F938F939F93AF93BF9321
:104D40008091990490919A04A0919B04B0919C0445
:104D50003091980423E0230F2D3758F50196A11DBB
:104D6000B11D209398048093990490939A04A09382
:104D70009B04B0939C0480919D0490919E04A0910B
:104D80009F04B091A0040196A11DB11D80939D04C4
:104D900090939E04A0939F04B093A004BF91AF9101
:104DA0009F918F913F912F910F900FBE0F901F9069
:104DB000189526E8230F0296A11DB11DD2CF3FB74B
:104DC000F89480919D0490919E04A0919F04B091CD
:104DD000A00426B5A89B05C02F3F19F00196A11D80
:104DE000B11D3FBFBA2FA92F982F8827BC01CD0135
:104DF000620F711D811D911D42E0660F771F881F94
:104E0000991F4A95D1F708958F929F92AF92BF92C2
:104E1000CF92DF92EF92FF926B017C01D0DF4B01CA
:104E20005C01C114D104E104F104D9F0CBD2C7DF95
:104E3000681979098A099B09683E734081059105C3
:104E400080F321E0C21AD108E108F10888EE880E4B
:104E500083E0981EA11CB11CC114D104E104F1042B
:104E600031F7FF90EF90DF90CF90BF90AF909F9081
:104E70008F900895789484B5826084BD84B58160F4
:104E800084BD85B5826085BD85B5816085BDEEE652
:104E9000F0E0808181608083E1E8F0E01082808131
:104EA00082608083808181608083E0E8F0E080819F
:104EB00081608083E1EBF0E0808184608083E0EBBF
:104EC000F0E0808181608083EAE7F0E080818460A7
:104ED0008083808182608083808181608083808103
:104EE000806880831092C1000895833081F028F497
:104EF000813099F08230A9F008958730A9F0883088
:104F0000C9F08430B1F4809180008F7D03C080911E
:104F100080008F7780938000089584B58F7784BD5B
:104F2000089584B58F7DFBCF8091B0008F778093FB
:104F3000B00008958091B0008F7DF9CFCF93DF93BB
:104F400090E0FC01E458FF4F249180579F4FFC01F3
:104F500084918823C9F090E0880F991FFC01E255E5
:104F6000FF4FA591B491FC01EC55FF4FC591D49131
:104F700061110DC09FB7F8948C91209582238C937A
:104F80008881282328839FBFDF91CF9108956230C5
:104F900051F49FB7F8943C91822F809583238C9392
:104FA000E8812E2BEFCF8FB7F894EC912E2B2C931A
:104FB0008FBFEACF1F93CF93DF93282F30E0F90103
:104FC000E859FF4F8491F901E458FF4FD491F9015A
:104FD000E057FF4FC491CC23A1F0162F811185DF3C
:104FE000EC2FF0E0EE0FFF1FEC55FF4FA591B491B1
:104FF0008FB7F894EC91111108C0D095DE23DC93A3
:105000008FBFDF91CF911F910895DE2BF8CFFC0168
:10501000918D228D892F90E0805C9F4F821B91099A
:105020008F7399270895FC01918D828D981731F027
:10503000828DE80FF11D858D90E008958FEF9FEF31
:105040000895FC01918D828D981761F0A28DAE0FAD
:10505000BF2FB11D5D968C91928D9F5F9F73928F34
:1050600090E008958FEF9FEF0895FC01538D448DDC
:10507000252F30E0842F90E0821B930B541710F003
:10508000CF96089501970895FC01A48DA80FB92F1C
:10509000B11DA35ABF4F2C91848D90E001968F7360
:1050A0009927848FA689B7892C93A089B1898C917F
:1050B000837080648C93938D848D981306C00288CE
:1050C000F389E02D80818F7D80830895CF93DF93D6
:1050D000EC01888D8823B1F0AA89BB89E889F98918
:1050E0008C9185FD03C0808186FD0CC00FB607FC46
:1050F000F7CF8C9185FFF2CF808185FFEDCFCE0178
:10510000C3DFEACFDF91CF910895EF92FF920F9323
:105110001F93CF93DF93EC0181E0888F9B8D8C8D63
:1051200098131AC0E889F989808185FF15C09FB757
:10513000F894EE89FF896083E889F989808183701A
:10514000806480839FBF81E090E0DF91CF911F91C9
:105150000F91FF90EF900895F62E0B8D10E00F5FEA
:105160001F4F0F731127E02E8C8D8E110BC00FB6C1
:1051700007FCFACFE889F989808185FFF5CFCE0158
:1051800083DFF2CFEB8DEC0FFD2FF11DE35AFF4FC4
:10519000F0829FB7F8940B8FEA89FB898081806247
:1051A000D0CFCF92DF92EF92FF921F93CF93DF93F6
:1051B000EC016A017B01122FE889F98982E0808382
:1051C000C11481EED806E104F10499F060E079E0C1
:1051D0008DE390E0A70196010AD1215031094109E0
:1051E00051095695479537952795211580E1380740
:1051F00090F0E889F989108260E874E88EE190E027
:10520000A7019601F4D02150310941095109569561
:10521000479537952795EC85FD853083EE85FF858D
:105220002083188EEC89FD891083EA89FB898081AF
:1052300080618083EA89FB89808188608083EA8934
:10524000FB89808180688083EA89FB8980818F7DEA
:105250008083DF91CF911F91FF90EF90DF90CF90EF
:1052600008951F920F920FB60F9211242F938F93D0
:105270009F93EF93FF93E091B104F091B20480818A
:10528000E091B704F091B80482FD1BC09081809139
:10529000BA048F5F8F732091BB04821741F0E091B5
:1052A000BA04F0E0EF55FB4F958F8093BA04FF915D
:1052B000EF919F918F912F910F900FBE0F901F90A4
:1052C00018958081F4CF1F920F920FB60F92112480
:1052D0002F933F934F935F936F937F938F939F93FE
:1052E000AF93BF93EF93FF9381EA94E0CDDEFF91FC
:1052F000EF91BF91AF919F918F917F916F915F914E
:105300004F913F912F910F900FBE0F901F901895C6
:10531000E1EAF4E01382128288EE93E0A0E0B0E0CC
:1053200084839583A683B78381EE91E09183808304
:1053300085EC90E09587848784EC90E0978786875A
:1053400080EC90E0918B808B81EC90E0938B828B52
:1053500082EC90E0958B848B86EC90E0978B868B2B
:10536000118E128E138E148E0895AF92BF92CF922B
:10537000DF92EF92FF920F931F93CF93DF936C0115
:105380007B018B01040F151FEB015E01AE18BF08F6
:10539000C017D10759F06991D601ED91FC910190A8
:1053A000F081E02DC6010995892B79F7C501DF91C0
:1053B000CF911F910F91FF90EF90DF90CF90BF9012
:1053C000AF9008950895AA1BBB1B51E107C0AA1F07
:1053D000BB1FA617B70710F0A61BB70B881F991F96
:1053E0005A95A9F780959095BC01CD010895A1E249
:1053F0001A2EAA1BBB1BFD010DC0AA1FBB1FEE1F4F
:10540000FF1FA217B307E407F50720F0A21BB30B99
:10541000E40BF50B661F771F881F991F1A9469F715
:1054200060957095809590959B01AC01BD01CF0171
:105430000895EE0FFF1F0590F491E02D099409D017
:10544000A59F900DB49F900DA49F800D911D1124D8
:105450000895A29FB001B39FC001A39F700D811D4D
:105460001124911DB29F700D811D1124911D08956D
:10547000FB01DC0102C001900D9241505040D8F771
:105480000895DC0101C06D9341505040E0F708954C
:04549000F894FFCFBE
:1054940000000000000000000000803F0000000049
:1054A4000000803F000048420000A04000000000CF
:1054B4000000803F0000C8420000204100000000BE
:1054C400010100FEFFFFFF01E8030000FFFF0000F1
:1054D4000000FFFFFFFFFFFFFFFFFFFF01000100D0
:1054E4000100200038001800FFFFFFFF011002FF39
:1054F40000600D8C0DFE00460DC70AFD00D80C326D
:105504000DFC001E0DC70AF6000F0EC70AF500E5D4
:105514000C4E0EF400D80D650EDE008B122415DD42
:1055240000FA13C70ADA0035103D10D9003F154DB3
:1055340010E2001D0FC70AE100580FC70AE000CDB2
:105544000FC70AD6002319C70AD500DA11C70AD42F
:10555400006611C70AD300D710C70AC0005C10C781
:105564000AF0008C19C70AED004919C70A000000A7
:10557400008528B5293528662807282128132800FE
:00000001FF
